:100000000C9434000C943E000C943E000C943E0082
:100010000C943E000C943E000C943E000C943E0068
:100020000C943E000C943E000C943E000C943E0058
:100030000C943E000C943E000C943E000C943E0048
:100040000C943E000C943E000C943E000C943E0038
:100050000C943E000C943E000C943E000C943E0028
:100060000C943E000C943E0011241FBECFEFD8E04C
:10007000DEBFCDBF0E9440000C9475040C940000BC
:100080008AB1806E8AB954985F9A5F985D985E9A3B
:100090005E985D9A5E9A5E985D9A5E9A5E985D9AA9
:1000A0005E9A5E985D985E9A5E985D985E9A5E989C
:1000B0005D9A5E9A5E985D9A5E9A5E985D985E9A89
:1000C0005E985D9A5E9A5E985D9A5E9A5E985D987B
:1000D0005E9A5E985D985E9A5E985D9A5E9A5E986A
:1000E0005D985E9A5E985D9A5E9A5E985D985E9A5B
:1000F0005E985D9A5E9A5E985D9A5E9A5E985D9A49
:100100005E9A5E985D985E9A5E985D9A5E9A5E9839
:100110005D985E9A5E985D985E9A5E985D985E9A2C
:100120005E985D9A5E9A5E985D985E9A5E985D9A1A
:100130005E9A5E985D9A5E9A5E985D9A5E9A5E9807
:100140005D9A5E9A5E985D9A5E9A5E985D985E9AF8
:100150005E985D9A5E9A5E985D9A5E9A5E985D98EA
:100160005E9A5E985D985E9A5E985D9A5E9A5E98D9
:100170005D9A5E9A5E985D985E9A5E985D985E9ACA
:100180005E985D9A5E9A5E985D9A5E9A5E985D98BA
:100190005E9A5E985D9A5E9A5E985D9A5E9A5E98A7
:1001A0005D985E9A5E985D985E9A5E985D985E9A9C
:1001B0005E985D9A5E9A5E985D9A5E9A5E985D988A
:1001C0005E9A5E985D985E9A5E985D985E9A5E987B
:1001D0005D985E9A5E985D9A5E9A5E985D985E9A6A
:1001E0005E985D9A5E9A5E985D9A5E9A5E985D985A
:1001F0005E9A5E985D985E9A5E985D9A5E9A5E9849
:100200005D9A5E9A5E985D9A5E9A5E985D985E9A37
:100210005E985D985E9A5E985D9A5E9A5E985D9A29
:100220005E9A5E985D9A5E9A5E985D985E9A5E9818
:100230005D9A5E9A5E985D985E9A5E985D985E9A09
:100240005E985D9A5E9A5E985D985E9A5E985D98FB
:100250005E9A5E985D9A5E9A5E985D985E9A5E98E8
:100260005D985E9A5E985D985E9A5E985D985E9ADB
:100270005E985D9A5E9A5E985D985E9A5E985D9AC9
:100280005E9A5E985D985E9A5E985D9A5E9A5E98B8
:100290005D985E9A5E985D985E9A5E985D985E9AAB
:1002A0005E985D9A5E9A5E985D985E9A5E985D989B
:1002B0005E9A5E985D985E9A5E985D985E9A5E988A
:1002C0005D9A5E9A5E985D985E9A5E985D985E9A79
:1002D0005E985D9A5E9A5E985D9A5E9A5E985D9A67
:1002E0005E9A5E985D9A5E9A5E985D985E9A5E9858
:1002F0005D9A5E9A5E985D9A5E9A5E985D985E9A47
:100300005E985D985E9A5E985D9A5E9A5E985D9A38
:100310005E9A5E985D9A5E9A5E985D985E9A5E9827
:100320005D985E9A5E985D985E9A5E985D985E9A1A
:100330005E985D985E9A5E985D9A5E9A5E985D9A08
:100340005E9A5E985D985E9A5E985D985E9A5E98F9
:100350005D985E9A5E985D9A5E9A5E985D985E9AE8
:100360005E985D985E9A5E985D9A5E9A5E985D9AD8
:100370005E9A5E985D985E9A5E985D9A5E9A5E98C7
:100380005D9A5E9A5E985D9A5E9A5E985D985E9AB6
:100390005E985D9A5E9A5E985D985E9A5E985D9AA8
:1003A0005E9A5E985D9A5E9A5E985D9A5E9A5E9895
:1003B0005D9A5E9A5E985D9A5E9A5E985D985E9A86
:1003C0005E985D985E9A5E985D9A5E9A5E985D9A78
:1003D0005E9A5E985D9A5E9A5E985D985E9A5E9867
:1003E0005D985E9A5E985D985E9A5E985D985E9A5A
:1003F0005E985D985E9A5E985D9A5E9A5E985D9A48
:100400005E9A5E985D985E9A5E985D9A5E9A5E9836
:100410005D985E9A5E985D985E9A5E985D985E9A29
:100420005E985D9A5E9A5E985D9A5E9A5E985D9817
:100430005E9A5E985D9A5E9A5E985D9A5E9A5E9804
:100440005D9A5E9A5E985D985E9A5E985D985E9AF7
:100450005E985D985E9A5E985D9A5E9A5E985D9AE7
:100460005E9A5E985D9A5E9A5E985D985E9A5E98D6
:100470005D985E9A5E985D9A5E9A5E985D985E9AC7
:100480005E985D985E9A5E985D9A5E9A5E985D9AB7
:100490005E9A5E985D985E9A5E985D985E9A5E98A8
:1004A0005D985E9A5E985D9A5E9A5E985D985E9A97
:1004B0005E985D9A5E9A5E985D9A5E9A5E985D9887
:1004C0005E9A5E985D9A5E9A5E985D9A5E9A5E9874
:1004D0005D9A5E9A5E985D985E9A5E985D985E9A67
:1004E0005E985D985E9A5E985D9A5E9A5E985D9A57
:1004F0005E9A5E985D9A5E9A5E985D985E9A5E9846
:100500005D985E9A5E985D9A5E9A5E985D985E9A36
:100510005E985D9A5E9A5E985D985E9A5E985D9A26
:100520005E9A5E985D9A5E9A5E985D9A5E9A5E9813
:100530005D9A5E9A5E985D9A5E9A5E985D985E9A04
:100540005E985D985E9A5E985D9A5E9A5E985D9AF6
:100550005E9A5E985D985E9A5E985D985E9A5E98E7
:100560005D985E9A5E985D9A5E9A5E985D985E9AD6
:100570005E985D985E9A5E985D9A5E9A5E985D9AC6
:100580005E9A5E985D985E9A5E985D9A5E9A5E98B5
:100590005D985E9A5E985D9A5E9A5E985D985E9AA6
:1005A0005E985D9A5E9A5E985D985E9A5E985D9A96
:1005B0005E9A5E985D9A5E9A5E985D9A5E9A5E9883
:1005C0005D9A5E9A5E985D9A5E9A5E985D985E9A74
:1005D0005E985D985E9A5E985D9A5E9A5E985D9A66
:1005E0005E9A5E985D985E9A5E985D985E9A5E9857
:1005F0005D9A5E9A5E985D9A5E9A5E985D985E9A44
:100600005E985D9A5E9A5E985D9A5E9A5E985D9A33
:100610005E9A5E985D985E9A5E985D9A5E9A5E9824
:100620005D9A5E9A5E985D985E9A5E985D985E9A15
:100630005E985D985E9A5E985D9A5E9A5E985D9A05
:100640005E9A5E985D985E9A5E985D985E9A5E98F6
:100650005D9A5E9A5E985D9A5E9A5E985D985E9AE3
:100660005E985D985E9A5E985D9A5E9A5E985D9AD5
:100670005E9A5E985D985E9A5E985D985E9A5E98C6
:100680005D9A5E9A5E985D985E9A5E985D985E9AB5
:100690005E985D9A5E9A5E985D9A5E9A5E985D9AA3
:1006A0005E9A5E985D9A5E9A5E985D985E9A5E9894
:1006B0005D985E9A5E985D9A5E9A5E985D985E9A85
:1006C0005E985D9A5E9A5E985D9A5E9A5E985D9A73
:1006D0005E9A5E985D985E9A5E985D9A5E9A5E9864
:1006E0005D9A5E9A5E985D9A5E9A5E985D985E9A53
:1006F0005E985D9A5E9A5E985D9A5E9A5E985D9845
:100700005E9A5E985D9A5E9A5E985D985E9A5E9833
:100710005D985E9A5E985D985E9A5E985D985E9A26
:100720005E985D985E9A5E985D9A5E9A5E985D9A14
:100730005E9A5E985D985E9A5E985D985E9A5E9805
:100740005D9A5E9A5E985D9A5E9A5E985D985E9AF2
:100750005E985D985E9A5E985D9A5E9A5E985D9AE4
:100760005E9A5E985D985E9A5E985D985E9A5E98D5
:100770005D9A5E9A5E985D985E9A5E985D985E9AC4
:100780005E985D985E9A5E985D9A5E9A5E985D9AB4
:100790005E9A5E985D985E9A5E985D985E9A5E98A5
:1007A0005D9A5E9A5E985D9A5E9A5E985D985E9A92
:1007B0005E985D985E9A5E985D9A5E9A5E985D9886
:1007C0005E9A5E985D985E9A5E985D985E9A5E9875
:1007D0005D985E9A5E985D9A5E9A5E985D985E9A64
:1007E0005E985D9A5E9A5E985D985E9A5E985D9856
:1007F0005E9A5E985D985E9A5E985D985E9A5E9845
:100800005D985E9A5E985D985E9A5E985D985E9A35
:100810005E985D985E9A5E985D9A5E9A5E985D9825
:100820005E9A5E985D985E9A5E985D985E9A5E9814
:100830005D9A5E9A5E985D9A5E9A5E985D985E9A01
:100840005E985D985E9A5E985D9A5E9A5E985D98F5
:100850005E9A5E985D985E9A5E985D9A5E9A5E98E2
:100860005D985E9A5E985D985E9A5E985D985E9AD5
:100870005E985D985E9A5E985D9A5E9A5E985D98C5
:100880005E9A5E985D985E9A5E985D9A5E9A5E98B2
:100890005D985E9A5E985D9A5E9A5E985D985E9AA3
:1008A0005E985D9A5E9A5E985D9A5E9A5E985D9A91
:1008B0005E9A5E985D9A5E9A5E985D9A5E9A5E9880
:1008C0005D985E9A5E985D9A5E9A5E988BB18F791C
:1008D0008BB95F9A2AEA36EE86E991E021503040E2
:0E08E00080409040D9F70000D0CBF894FFCFB5
:00000001FF
